{
  "contractName": "Funder",
  "abi": [
    {
      "stateMutability": "payable",
      "type": "receive",
      "payable": true
    },
    {
      "inputs": [],
      "name": "transfer",
      "outputs": [],
      "stateMutability": "payable",
      "type": "function",
      "payable": true
    },
    {
      "inputs": [
        {
          "internalType": "uint256",
          "name": "withdrawAmount",
          "type": "uint256"
        }
      ],
      "name": "withdraw",
      "outputs": [],
      "stateMutability": "nonpayable",
      "type": "function"
    }
  ],
  "bytecode": "0x608060405234801561001057600080fd5b50610558806100206000396000f3fe60806040526004361061002d5760003560e01c80632e1a7d4d146100395780638a4068dd1461006257610034565b3661003457005b600080fd5b34801561004557600080fd5b50610060600480360381019061005b91906102b2565b61006c565b005b61006a610221565b005b60008060003373ffffffffffffffffffffffffffffffffffffffff1673ffffffffffffffffffffffffffffffffffffffff16815260200190815260200160002054116100ed576040517f08c379a00000000000000000000000000000000000000000000000000000000081526004016100e49061033c565b60405180910390fd5b671bc16d674ec80000471015610138576040517f08c379a000000000000000000000000000000000000000000000000000000000815260040161012f906103ce565b60405180910390fd5b671bc16d674ec80000811115610183576040517f08c379a000000000000000000000000000000000000000000000000000000000815260040161017a90610460565b60405180910390fd5b3373ffffffffffffffffffffffffffffffffffffffff166108fc829081150290604051600060405180830381858888f193505050501580156101c9573d6000803e3d6000fd5b506000803373ffffffffffffffffffffffffffffffffffffffff1673ffffffffffffffffffffffffffffffffffffffff1681526020019081526020016000206000815480929190610219906104af565b919050555050565b6000803373ffffffffffffffffffffffffffffffffffffffff1673ffffffffffffffffffffffffffffffffffffffff1681526020019081526020016000206000815480929190610270906104d9565b9190505550565b600080fd5b6000819050919050565b61028f8161027c565b811461029a57600080fd5b50565b6000813590506102ac81610286565b92915050565b6000602082840312156102c8576102c7610277565b5b60006102d68482850161029d565b91505092915050565b600082825260208201905092915050565b7f596f7520686176656e7420696e76657374656420696e2062616e6b0000000000600082015250565b6000610326601b836102df565b9150610331826102f0565b602082019050919050565b6000602082019050818103600083015261035581610319565b9050919050565b7f576520646f6e74206861766520656e6f7567682062616c616e636520746f207060008201527f617920796f750000000000000000000000000000000000000000000000000000602082015250565b60006103b86026836102df565b91506103c38261035c565b604082019050919050565b600060208201905081810360008301526103e7816103ab565b9050919050565b7f43616e6e6f74207769746864726177206d6f7265207468616e2032206574686560008201527f7200000000000000000000000000000000000000000000000000000000000000602082015250565b600061044a6021836102df565b9150610455826103ee565b604082019050919050565b600060208201905081810360008301526104798161043d565b9050919050565b7f4e487b7100000000000000000000000000000000000000000000000000000000600052601160045260246000fd5b60006104ba8261027c565b915060008214156104ce576104cd610480565b5b600182039050919050565b60006104e48261027c565b91507fffffffffffffffffffffffffffffffffffffffffffffffffffffffffffffffff82141561051757610516610480565b5b60018201905091905056fea26469706673582212204642c7c1422cf3e937ea4271f1840dd82ed4a0d02a4cc98d36a1cdb5a9c352c464736f6c63430008090033",
  "immutableReferences": {},
  "source": "// SPDX-License-Identifier: MIT\r\npragma solidity >=0.4.22 <0.9.0;\r\ncontract Funder {\r\n    mapping(address=>uint) private funders;\r\n\r\n    receive() external payable {}\r\n\r\n    function transfer() external payable {\r\n        funders[msg.sender]++;\r\n    }\r\n\r\n    function withdraw(uint256 withdrawAmount)  external  {\r\n        require(funders[msg.sender]>0,\"You havent invested in bank\");\r\n        require(address(this).balance>=2000000000000000000,\"We dont have enough balance to pay you\");\r\n        require(\r\n            withdrawAmount <= 2000000000000000000,\r\n            \"Cannot withdraw more than 2 ether\"\r\n        );\r\n        payable(msg.sender).transfer(withdrawAmount);\r\n        funders[msg.sender]--;\r\n    }\r\n}",
  "sourcePath": "C:\\Users\\khann\\Desktop\\BlockChain\\5\\1_Dapp\\backend\\contracts\\Funder.sol",
  "compiler": {
    "name": "solc",
    "version": "0.8.9+commit.e5eed63a.Emscripten.clang"
  },
  "schemaVersion": "3.4.14",
  "updatedAt": "2023-08-01T20:05:16.402Z",
  "networkType": "ethereum",
  "devdoc": {
    "kind": "dev",
    "methods": {},
    "version": 1
  },
  "userdoc": {
    "kind": "user",
    "methods": {},
    "version": 1
  }
}